:020000020000FC
:02000000DBC063
:0200040018954D
:02000800189549
:02000C00189545
:02001000189541
:0200140018953D
:02001800189539
:02001C00189535
:02002000189531
:0200240018952D
:02002800189529
:02002C00189525
:02003000189521
:0200340018951D
:02003800189519
:02003C00189515
:0200400025C0D9
:0200440018950D
:02004800189509
:02004C00189505
:02005000189501
:020054001895FD
:020058001895F9
:02005C001895F5
:020060001895F1
:020064001895ED
:020068001895E9
:02006C001895E5
:020070001895E1
:020074001895DD
:020078005BC06B
:02007C002FC093
:020080001895D1
:020084001895CD
:020088001895C9
:10008C00DF93CF930F930FB70F930196913048F0F6
:10009C00893338F0346080E090E01395143009F423
:1000AC0010E0DE2DCF2D0D2D2196D43F40F0C43223
:1000BC0030F0C0E0D0E00395083009F400E0ED2EFC
:1000CC00FC2ED02E0F910FBF0F91CF91DF91189571
:1000DC002F93DF93CF930F930FB70F9300911101D1
:1000EC002091120133FD08C0021731F420919A00BF
:1000FC002F7D20939A000FC0C9E0D1E0C00F2227BA
:10010C00D21F288120939C00377F0395083008F07C
:10011C000027009311010F910FBF0F91CF91DF9129
:10012C002F9118952F93DF93CF930F930FB70F93B6
:10013C00222700919B0002FD2F5F03FD2F5F04FD22
:10014C002F5FC8E0D1E00881020F088300919C006A
:10015C00203009F00FEF0D93C0E0D1E02796CA17BD
:10016C00DB0714F4A0E0B1E031600F910FBF0F91E9
:10017C00CF91DF912F911895C501C801CB01CE010C
:10018C00D101D401D701DA01DD01E001E301E6017F
:10019C00E901EC01EF01F201F501F80148656C6C25
:1001AC006F2C20776F726C64210D0A00E0E0F1E097
:1001BC0000270193F131E9F7E030D9F7EE27FF275B
:1001CC00EEE1FF27EA95F083E9F70FEF0DBF00E1B1
:1001DC000EBF00E0009398000093990000E4009398
:1001EC009B0008EB00939A0006E000939D000FEF34
:1001FC0004BB0ABB01E003BF07BFA0E0B1E0E89479
:10020C0000E0789430FF0FC03E7FED0171D00A9171
:10021C000B3649F46DD00A91073729F469D00A914D
:10022C00013609F4326032FF38C03B7FC0E00D2D3F
:10023C00C00F00E0D1E0D01F0881C02FD02FCF70AD
:10024C00D07FD695D695D695D6955D2F6C2FED0192
:10025C004FD00A91C02FD02FCF70D07FD695D69586
:10026C00D695D6957D2F4C2FE894503108F0689494
:10027C00603108F06894703108F06894403108F0EF
:10028C00689450300AF4689460300AF468947030C2
:10029C000AF4689440300AF4689431FF18C033FDB6
:1002AC0016C00B2DE8EAF1E0E00F0027F01F0491D7
:1002BC00A02E25D000919A00006200939A000B2D7D
:1002CC000395EEE0E01714F400273D7FB02E1030BC
:1002DC0039F0113039F0123039F0133039F092CF47
:1002EC000C94B1010C94B6010C94BB010C94C0019C
:1002FC0000E0C01701E0D00709F42896089500919A
:10030C009A000F7D00939A00C9E0D1E00091120190
:10031C00C00F0027D01F0A2D0883D0911101C09166
:10032C001201C395C83008F0CC27CD1709F43860FA
:10033C00C093120100919A00006200939A000895F4
:10034C00220FE4E8F1E00027E20FF01FC591D491F1
:10035C00FE01099457CF01E005BBDEF1252FF0CF4C
:10036C0002E005BBE6F1262FEBCF04E005BBBEF1A6
:10037C00272FE6CF08E005BBAEF1242FE1CF00EC30
:10038C000BBB40CF09EF0BBB3DCF04EA0BBB3ACF05
:10039C0000EB0BBB37CF09E90BBB34CF02E90BBB2E
:1003AC0031CF02E80BBB2ECF08EF0BBB2BCF00E8F5
:1003BC000BBB28CF00E90BBB25CF08E80BBB22CF2A
:1003CC0003E80BBB1FCF06EC0BBB1CCF01EA0BBB2E
:1003DC0019CF06E80BBB16CF0EE80BBB13CF0FEAF9
:0A03EC000BBB10CF0FEB0BBB0DCFC6
:00000001FF
