:020000020000FC
:02000000D4C06A
:0200040018954D
:02000800189549
:02000C00189545
:02001000189541
:0200140018953D
:02001800189539
:02001C00189535
:02002000189531
:0200240018952D
:02002800189529
:02002C00189525
:02003000189521
:0200340018951D
:02003800189519
:02003C00189515
:0200400025C0D9
:0200440018950D
:02004800189509
:02004C00189505
:02005000189501
:020054001895FD
:020058001895F9
:02005C001895F5
:020060001895F1
:020064001895ED
:020068001895E9
:02006C001895E5
:020070001895E1
:020074001895DD
:020078005BC06B
:02007C002FC093
:020080001895D1
:020084001895CD
:020088001895C9
:10008C00DF93CF930F930FB70F930196913048F0F6
:10009C00893338F0346080E090E01395143009F423
:1000AC0010E0DE2DCF2D0D2D2196D43F40F0C43223
:1000BC0030F0C0E0D0E00395083009F400E0ED2EFC
:1000CC00FC2ED02E0F910FBF0F91CF91DF91189571
:1000DC002F93DF93CF930F930FB70F9300911101D1
:1000EC002091120133FD08C0021731F420919A00BF
:1000FC002F7D20939A000FC0C9E0D1E0C00F2227BA
:10010C00D21F288120939C00377F0395083008F07C
:10011C000027009311010F910FBF0F91CF91DF9129
:10012C002F9118952F93DF93CF930F930FB70F93B6
:10013C00222700919B0002FD2F5F03FD2F5F04FD22
:10014C002F5FC8E0D1E00881020F088300919C006A
:10015C00203009F00FEF0D93C0E0D1E02796CA17BD
:10016C00DB0714F4A0E0B1E031600F910FBF0F91E9
:10017C00CF91DF912F9118951895F401F701FA01A1
:10018C00FD0100020302060209020C020F02120218
:10019C00150218021B021E02210224022702E0E0B3
:1001AC00F1E000270193F131E9F7E030D9F7EE27C0
:1001BC00FF27EEE1FF27EA95F083E9F70FEF0DBF7C
:1001CC0000E10EBF00E00093980000E0009399005E
:1001DC0000E400939B0008EB00939A0006E0009368
:1001EC009D000FEF04BB0ABB01E003BF07BF07B3C1
:1001FC00076007BB08B30E7F08BB01E50DB901E032
:10020C000EB9A0E0B1E0E89400E0789430FF0FC0A4
:10021C003E7FED018DD00A910B3649F489D00A91BD
:10022C00073729F485D00A91013609F4326031FF81
:10023C0011C0203009F400E0213009F404E622302A
:10024C0009F400E2233009F409E62395243009F47B
:10025C0022270FB9779B22C00FB100932D0109E023
:10026C000093270101E00093280102E100932B0188
:10027C0001E000932C0101E10093290101E00093BE
:10028C002A0108E000932E015AD000912D0105FDA2
:10029C00386000919A00006200939A0032FF3FC0D0
:1002AC003B7FC9E0D1E00D2DC00F00E0D01F0881CD
:1002BC00C02FD02FCF70D07FD695D695D695D6950A
:1002CC005D2F6C2F0D2DC02FD02FCF70D07FD695DA
:1002DC00D695D695D6957D2F4C2F503108F0689435
:1002EC00603108F06894703108F06894403108F07F
:1002FC00689450300AF4689460300AF46894703052
:10030C000AF4689440300AF4689433FD6894103011
:10031C0039F0113039F0123039F0133039F076CF22
:10032C000C94E0010C94E5010C94EA010C94EF019F
:10033C0000E0C01701E0D00709F428960895F8945E
:10034C00C0912701D0912801E0912B01F0912C0153
:10035C000081C00F0027D01F00912D010883E09170
:10036C002901F0912A01D081E0912B01F0912C010F
:10037C00C081C39500912E01C01708F0CC27CD1772
:10038C0051F000E000932D01E0912B01F0912C0134
:10039C00C083789408950FEF00932D01F5CFCC0C0A
:1003AC00E6E8F1E00027EC0DF01FC591D491FE01B9
:1003BC0009942CCF01E005BBDEF1C52EF0CF02E095
:1003CC0005BBE6F1C62EEBCF04E005BBBEF1C72E94
:1003DC00E6CF08E005BBAEF1C42EE1CF00EC0BBBC1
:1003EC0015CF09EF0BBB12CF04EA0BBB0FCF00EB01
:1003FC000BBB0CCF09E90BBB09CF02E90BBB06CF3A
:10040C0002E80BBB03CF08EF0BBB00CF00E80BBB24
:10041C00FDCE00E90BBBFACE08E80BBBF7CE03E828
:10042C000BBBF4CE06EC0BBBF1CE01EA0BBBEECE54
:10043C0006E80BBBEBCE0EE80BBBE8CE0FEA0BBB12
:08044C00E5CE0FEB0BBBE2CE85
:00000001FF
