:020000020000FC
:0200000001C13C
:0200040018954D
:02000800189549
:02000C00189545
:02001000189541
:0200140018953D
:02001800189539
:02001C00189535
:02002000189531
:0200240018952D
:02002800189529
:02002C00189525
:02003000189521
:0200340018951D
:02003800189519
:02003C00189515
:0200400025C0D9
:020044009FC05B
:02004800189509
:02004C00189505
:02005000189501
:020054001895FD
:020058001895F9
:02005C001895F5
:020060001895F1
:020064001895ED
:020068001895E9
:02006C001895E5
:020070001895E1
:020074001895DD
:020078005BC06B
:02007C002FC093
:020080001895D1
:020084001895CD
:020088001895C9
:10008C00DF93CF930F930FB70F930196903048F0F7
:10009C008C3938F0346080E090E01395143009F41A
:1000AC0010E0DE2DCF2D0D2D2196DA3740F0C23128
:1000BC0030F0C0E0D0E00395023209F40027ED2EB9
:1000CC00FC2ED02E0F910FBF0F91CF91DF91189571
:1000DC002F93DF93CF930F930FB70F9300911101D1
:1000EC002091120133FD08C0021731F420919A00BF
:1000FC002F7D20939A000FC0C9E0D1E0C00F2227BA
:10010C00D21F288120939C00377F0395083008F07C
:10011C000027009311010F910FBF0F91CF91DF9129
:10012C002F9118952F93DF93CF930F930FB70F93B6
:10013C00222700919B0002FD2F5F03FD2F5F04FD22
:10014C002F5FC8E0D1E00881020F088300919C006A
:10015C00203009F00FEF0D93C0E0D1E02796CA17BD
:10016C00DB0714F4A0E0B1E031600F910FBF0F91E9
:10017C00CF91DF912F9118952F93CF93DF930F93FE
:10018C000FB70F9330640FB1C3E1D1E0209136016A
:10019C00C20F2227D21F08832091360123952232C9
:1001AC0008F0222700913501021709F430622093E0
:1001BC0036010F910FBF0F91DF91CF912F911895B1
:1001CC00C803CB03CE03D103D403D703DA03DD0377
:1001DC00E003E303E603E903EC03EF03F203F503A7
:1001EC00F803FB03FF50530800000000002061A03F
:1001FC00E1E2E35060A8B0FFE0E0F1E000270193FA
:10020C00F131E9F7E030D9F7EE27FF27EEE1FF27D0
:10021C00EA95F083E9F70FEF0DBF00E10EBF00E0A8
:10022C000093980000E00093990000E400939B0079
:10023C0008EB00939A0006E000939D0030640FEFEA
:10024C0004BB0ABB01E003BF07BF07B3076007BBD2
:10025C0008B3016008BB01ED0DB901E00EB9A0E0D7
:10026C00B1E0E8940FE100938D0104E000938E015E
:10027C000027789437FF30FFD3C03E7FED012BD29F
:10028C000A9120918B012C70243019F0283009F040
:10029C0011C0CBE6D1E020918D01C20F2227D21FD5
:1002AC00088320918D012A9512F42FE13068209358
:1002BC008D01B6C020918B0120FF1EC020916401DE
:1002CC002A3029F02B3019F0203109F011C0C6E684
:1002DC00D1E020918E01C20F2227D21F08832091DA
:1002EC008E012A9512F424E0306820938E0198C078
:1002FC0000936601306894C020918B0127FF16C0D3
:10030C00015370F0063064F420916301200F2093A8
:10031C00630100918B010F77086000938B0180C003
:10032C0000918B010F7700938B017AC020918B0188
:10033C0026FF1DC00054A8F000329CF420916301EC
:10034C00200F209363010093640100918B0125FF22
:10035C0005C001600F7B00938B0162C002603068A6
:10036C00F9CF00918B010F7B00938B0159C00B3699
:10037C0009F056C0B0D10A91073709F051C0ABD182
:10038C000A9101361CF40D3608F04AC00156E8EF0C
:10039C00F1E0E00F0027F01F049100936301001FB0
:1003AC0008F018F4001F20F080F4001F58F190F5AD
:1003BC0020918C01226020938C01306831C02091F7
:1003CC008B01246020938B012BC005FFF8CF20916B
:1003DC008B01206820938B0123C020918C0121601C
:1003EC0020938C0130681CC020918B0120622093DB
:1003FC008B01306815C020918B01206120938B01FB
:10040C0030680EC000916301003539F3003661F39A
:10041C00013689F320918B01206420938B0100C05D
:10042C0035FD06C020913601009135012017A1F150
:10043C0033FD32C0C3E1D1E020913501C20F222738
:10044C00D21F08813F7D0093610109E000935B019D
:10045C0001E000935C0102E100935F0101E0009375
:10046C00600101E100935D0101E000935E0108E091
:10047C000093620137D10091610105FD3860009154
:10048C009A00006200939A00209135012395223244
:10049C0008F022272093350137FFAEC034FDACC0E5
:1004AC0007E300935B0101E000935C010AE5009314
:1004BC005F0101E00093600109E500935D0101E03B
:1004CC0000935E0102E200936201009163010093CC
:1004DC00610108D120918C0121FF06C03F77326069
:1004EC002D7F20938C0185C020FF0AC003E7009369
:1004FC006101F8D03F7732602E7F20938C0179C058
:10050C0020918B0125FF0AC00FEF00936101EAD007
:10051C003F7732602F7D20938B016BC02C70243081
:10052C0029F0283019F0203109F022C000915A012D
:10053C00EBE6F1E0C7E3D1E0C00F2227D21F2191F7
:10054C0028830395023208F00027209159010213E9
:10055C0001C06894EB3821E0F20760F300935A0174
:10056C003F77326020918B01237E20938B0141C019
:10057C0020918B012370213019F0223009F038C002
:10058C00209164012A3029F02B3019F0203109F028
:10059C0022C000915A01E6E6F1E0C7E3D1E0C00FBA
:1005AC002227D21F219128830395023208F00027BD
:1005BC0020915901021301C06894EB3621E0F20737
:1005CC0060F300935A013F77326020918B012C7FAE
:1005DC0020938B010EC0009166010093610182D0C3
:1005EC003F77326020918B012C7F20938B0101C0CF
:1005FC0003C008B30E7F08BB31FF1FC00091590127
:10060C0020915A0134FD09C0021739F400935901A5
:10061C0008B3016008BB3D7F10C036FFF1CFC7E3C4
:10062C00D1E0C00F2227D21F28812FB93F7E3F7BFC
:10063C000395023208F00027E3CF32FF43C03B7F23
:10064C00C3E1D1E00D2DC00F0027D01F0881C02FB2
:10065C00D02FCF70D07FD695D695D695D6955D2FC9
:10066C006C2F0D2DC02FD02FCF70D07FD695D69557
:10067C00D695D6957D2F4C2F503108F0689460316B
:10068C0008F06894703108F06894403108F0689470
:10069C0050300AF4689460300AF4689470300AF4AC
:1006AC00689440300AF4689434FD689435FD68947D
:1006BC0033FD6894103039F0113039F0123039F0C4
:1006CC00133039F0D7CD0C94B4030C94B9030C94BB
:1006DC00BE030C94C30300E0C01701E0D00709F47B
:1006EC0028960895F894C0915B01D0915C01E0913B
:1006FC005F01F09160010081C00F0027D01F0091B5
:10070C0061010883E0915D01F0915E01D081E0917F
:10071C005F01F0916001C081C39500916201C01727
:10072C0008F0CC27CD1751F000E000936101E09167
:10073C005F01F0916001C0837894089568940FEF85
:10074C0000936101F4CFCC0CECECF1E00027EC0D44
:10075C00F01FC591D491FE0109948CCD01E005BB2D
:10076C00DEF1C52EF0CF02E005BBE6F1C62EEBCFD5
:10077C0004E005BBBEF1C72EE6CF08E005BBAEF129
:10078C00C42EE1CF00EC0BBB75CD09EF0BBB72CDCA
:10079C0004EA0BBB6FCD00EB0BBB6CCD09E90BBBBB
:1007AC0069CD02E90BBB66CD02E80BBB63CD08EF4C
:1007BC000BBB60CD00E80BBB5DCD00E90BBB5ACD8C
:1007CC0008E80BBB57CD03E80BBB54CD06EC0BBBB9
:1007DC0051CD01EA0BBB4ECD06E80BBB4BCD0EE861
:1007EC000BBB48CD0FEA0BBB45CD0FEB0BBB42CD82
:00000001FF
