:020000020000FC
:0200000012C12B
:0200040018954D
:02000800189549
:02000C00189545
:02001000189541
:0200140018953D
:02001800189539
:02001C00189535
:02002000189531
:0200240018952D
:02002800189529
:02002C00189525
:02003000189521
:0200340018951D
:02003800189519
:02003C00189515
:0200400025C0D9
:020044009FC05B
:02004800189509
:02004C00189505
:02005000189501
:020054001895FD
:020058001895F9
:02005C001895F5
:020060001895F1
:020064001895ED
:020068001895E9
:02006C001895E5
:020070001895E1
:020074001895DD
:020078005BC06B
:02007C002FC093
:020080001895D1
:020084001895CD
:020088001895C9
:10008C00DF93CF930F930FB70F930196913048F0F6
:10009C00893338F0346080E090E01395143009F423
:1000AC0010E0DE2DCF2D0D2D2196D43F40F0C43223
:1000BC0030F0C0E0D0E00395043109F400E0ED2EFF
:1000CC00FC2ED02E0F910FBF0F91CF91DF91189571
:1000DC002F93DF93CF930F930FB70F9300911101D1
:1000EC002091120133FD08C0021731F420919A00BF
:1000FC002F7D20939A000FC0C9E0D1E0C00F2227BA
:10010C00D21F288120939C00377F0395083008F07C
:10011C000027009311010F910FBF0F91CF91DF9129
:10012C002F9118952F93DF93CF930F930FB70F93B6
:10013C00222700919B0002FD2F5F03FD2F5F04FD22
:10014C002F5FC8E0D1E00881020F088300919C006A
:10015C00203009F00FEF0D93C0E0D1E02796CA17BD
:10016C00DB0714F4A0E0B1E031600F910FBF0F91E9
:10017C00CF91DF912F9118952F93CF93DF930F93FE
:10018C000FB70F930FB1C3E1D1E020912801C20F3B
:10019C002227D21F0883209128012395243108F0AF
:1001AC00222700912701021709F4306820932801B7
:1001BC00009131012091320136FD04C0021711F477
:1001CC003F7D0EC0C9E2D1E0C00F2227D21F28818B
:1001DC002FB93F7B0395083008F0002700933101BD
:1001EC000F910FBF0F91DF91CF912F9118956F0247
:1001FC007202750278027B027E02810284028702FF
:10020C008A028D0290029302960299029C029F022E
:10021C00A2026964696400000000E0E0F1E00027DC
:10022C000193F131E9F7E030D9F7EE27FF27EEE142
:10023C00FF27EA95F083E9F70FEF0DBF00E10EBF42
:10024C0000E00093980000E00093990000E4009314
:10025C009B0008EB00939A0006E000939D000FEFC3
:10026C0004BB0ABB01E003BF07BF07B3076007BBB2
:10027C0008B30E7F08BB01ED0DB901E00EB9A0E08B
:10028C00B1E0E89400E0789430FF0FC03E7FED01C0
:10029C00CAD00A910B3649F4C6D00A91073729F413
:1002AC00C2D00A91013609F4326037FD06C02091A4
:1002BC002801009127012017A1F133FD32C0C3E1C1
:1002CC00D1E020912701C20F2227D21F08813F774E
:1002DC000093390109E00093330101E000933401EC
:1002EC0002E10093370101E00093380101E1009332
:1002FC00350101E00093360108E000933A019AD0F1
:10030C000091390105FD386000919A00006200935C
:10031C009A00209127012395243108F0222720935D
:10032C00270131FF32C036FD30C00B2DEEE1F2E07B
:10033C00E00F0027F01F04910093390109E20093AC
:10034C00330101E00093340102E30093370101E033
:10035C000093380101E30093350101E0009336016D
:10036C0008E000933A0166D00091390105FD306434
:10037C0035FD03C009E60FB930620B2D0395E3E0A0
:10038C00E01714F400273D7FB02E32FF43C03B7FB3
:10039C00C3E1D1E00D2DC00F00E0D01F0881C02FAC
:1003AC00D02FCF70D07FD695D695D695D6955D2F7C
:1003BC006C2F0D2DC02FD02FCF70D07FD695D6950A
:1003CC00D695D6957D2F4C2F503108F0689460311E
:1003DC0008F06894703108F06894403108F0689423
:1003EC0050300AF4689460300AF4689470300AF45F
:1003FC00689440300AF4689436FD689437FD68942C
:10040C0033FD6894103039F0113039F0123039F076
:10041C00133039F039CF0C945B020C9460020C94BD
:10042C0065020C946A0200E0C01701E0D00709F4E1
:10043C0028960895F894C0913301D0913401E0913D
:10044C003701F09138010081C00F0027D01F0091B7
:10045C0039010883E0913501F0913601D081E091AA
:10046C003701F0913801C081C39500913A01C01752
:10047C0008F0CC27CD1751F000E000933901E09142
:10048C003701F0913801C083789408950FEF0093F1
:10049C003901F5CFCC0CEAEFF1E00027EC0DF01FA1
:1004AC00C591D491FE010994EFCE01E005BBDEF1BC
:1004BC00C52EF0CF02E005BBE6F1C62EEBCF04E073
:1004CC0005BBBEF1C72EE6CF08E005BBAEF1C42ECE
:1004DC00E1CF00EC0BBBD8CE09EF0BBBD5CE04EAB9
:1004EC000BBBD2CE00EB0BBBCFCE09E90BBBCCCEFA
:1004FC0002E90BBBC9CE02E80BBBC6CE08EF0BBBA7
:10050C00C3CE00E80BBBC0CE00E90BBBBDCE08E8E8
:10051C000BBBBACE03E80BBBB7CE06EC0BBBB4CE11
:10052C0001EA0BBBB1CE06E80BBBAECE0EE80BBBA3
:0E053C00ABCE0FEA0BBBA8CE0FEB0BBBA5CED0
:00000001FF
