:020000020000FC
:02000000FBC043
:0200040018954D
:02000800189549
:02000C00189545
:02001000189541
:0200140018953D
:02001800189539
:02001C00189535
:02002000189531
:0200240018952D
:02002800189529
:02002C00189525
:02003000189521
:0200340018951D
:02003800189519
:02003C00189515
:0200400025C0D9
:020044009FC05B
:02004800189509
:02004C00189505
:02005000189501
:020054001895FD
:020058001895F9
:02005C001895F5
:020060001895F1
:020064001895ED
:020068001895E9
:02006C001895E5
:020070001895E1
:020074001895DD
:020078005BC06B
:02007C002FC093
:020080001895D1
:020084001895CD
:020088001895C9
:10008C00DF93CF930F930FB70F930196913048F0F6
:10009C00893338F0346080E090E01395143009F423
:1000AC0010E0DE2DCF2D0D2D2196D43F40F0C43223
:1000BC0030F0C0E0D0E00395083009F40027ED2EB5
:1000CC00FC2ED02E0F910FBF0F91CF91DF91189571
:1000DC002F93DF93CF930F930FB70F9300911101D1
:1000EC002091120133FD08C0021731F420919A00BF
:1000FC002F7D20939A000FC0C9E0D1E0C00F2227BA
:10010C00D21F288120939C00377F0395083008F07C
:10011C000027009311010F910FBF0F91CF91DF9129
:10012C002F9118952F93DF93CF930F930FB70F93B6
:10013C00222700919B0002FD2F5F03FD2F5F04FD22
:10014C002F5FC8E0D1E00881020F088300919C006A
:10015C00203009F00FEF0D93C0E0D1E02796CA17BD
:10016C00DB0714F4A0E0B1E031600F910FBF0F91E9
:10017C00CF91DF912F9118952F93CF93DF930F93FE
:10018C000FB70F9330640FB1C3E1D1E020911C0184
:10019C00C20F2227D21F088320911C0123952830DF
:1001AC0008F0222700911B01021709F430622093FA
:1001BC001C010F910FBF0F91DF91CF912F911895CB
:1001CC006E027102740277027A027D02800283024F
:1001DC00860289028C028F029202950298029B027F
:1001EC009E02A1020000696469006964E0E0F1E02C
:1001FC0000270193F131E9F7E030D9F7EE27FF271B
:10020C00EEE1FF27EA95F083E9F70FEF0DBF00E170
:10021C000EBF00E00093980000E00093990000E40A
:10022C0000939B0008EB00939A0006E000939D005E
:10023C0030640FEF04BB0ABB01E003BF07BF07B379
:10024C00076007BB08B30E7F08BB01ED0DB901E0D9
:10025C000EB9A0E0B1E0E89400E0789430FF0FC054
:10026C003E7FED01DFD00A910B3649F4DBD00A91C9
:10027C00073729F4D7D00A91013609F4326035FDDD
:10028C0006C020911C0100911B012017A1F133FD28
:10029C0032C0C3E1D1E020911B01C20F2227D21F33
:1002AC0008813F7D00932D0109E00093270101E0B7
:1002BC000093280102E100932B0101E000932C0133
:1002CC0001E10093290101E000932A0108E0009369
:1002DC002E01AFD000912D0105FD386000919A00E0
:1002EC00006200939A0020911B012395283008F09E
:1002FC00222720931B0131FF2DC034FD2BC00B2D69
:10030C00E0EFF1E0E00F0027F01F049100932D01C6
:10031C000DE10093270101E00093280106E2009310
:10032C002B0101E000932C0105E20093290101E06F
:10033C0000932A0108E000932E017BD000912D013F
:10034C0005FD30610B2D0395E7E0E01714F4002751
:10035C003D7FB02E009125012091260134FD03C074
:10036C00021709F411C036FF0FC0CDE1D1E0C00F68
:10037C002227D21F28812FB93F7E3F7B039508305F
:10038C0008F000270093250132FF43C03B7FC3E1F7
:10039C00D1E00D2DC00F0027D01F0881C02FD02F0A
:1003AC00CF70D07FD695D695D695D6955D2F6C2FE0
:1003BC000D2DC02FD02FCF70D07FD695D695D6953A
:1003CC00D6957D2F4C2F503108F06894603108F091
:1003DC006894703108F06894403108F0689450309B
:1003EC000AF4689460300AF4689470300AF46894E3
:1003FC0040300AF4689434FD689435FD689433FDFC
:10040C006894103039F0113039F0123039F0133063
:10041C0039F024CF0C945A020C945F020C946402B1
:10042C000C94690200E0C01701E0D00709F428968B
:10043C000895F894C0912701D0912801E0912B01E7
:10044C00F0912C010081C00F0027D01F00912D01CD
:10045C000883E0912901F0912A01D081E0912B01D0
:10046C00F0912C01C081C39500912E01C01708F0AA
:10047C00CC27CD1751F000E000932D01E0912B011A
:10048C00F0912C01C083789408950FEF00932D0107
:10049C00F5CFCC0CECECF1E00027EC0DF01FC59186
:1004AC00D491FE010994DACE01E005BBDEF1C52E34
:1004BC00F0CF02E005BBE6F1C62EEBCF04E005BBA6
:1004CC00BEF1C72EE6CF08E005BBAEF1C42EE1CFDE
:1004DC0000EC0BBBC3CE09EF0BBBC0CE04EA0BBBCD
:1004EC00BDCE00EB0BBBBACE09E90BBBB7CE02E914
:1004FC000BBBB4CE02E80BBBB1CE08EF0BBBAECE40
:10050C0000E80BBBABCE00E90BBBA8CE08E80BBBDD
:10051C00A5CE03E80BBBA2CE06EC0BBB9FCE01EA2B
:10052C000BBB9CCE06E80BBB99CE0EE80BBB96CE54
:0C053C000FEA0BBB93CE0FEB0BBB90CE75
:00000001FF
