:020000020000FC
:0200000013C12A
:0200040018954D
:02000800189549
:02000C00189545
:02001000189541
:0200140018953D
:02001800189539
:02001C00189535
:02002000189531
:0200240018952D
:02002800189529
:02002C00189525
:02003000189521
:0200340018951D
:02003800189519
:02003C00189515
:0200400025C0D9
:020044009FC05B
:02004800189509
:02004C00189505
:02005000189501
:020054001895FD
:020058001895F9
:02005C001895F5
:020060001895F1
:020064001895ED
:020068001895E9
:02006C001895E5
:020070001895E1
:020074001895DD
:020078005BC06B
:02007C002FC093
:020080001895D1
:020084001895CD
:020088001895C9
:10008C00DF93CF930F930FB70F930196913048F0F6
:10009C00893338F0346080E090E01395143009F423
:1000AC0010E0DE2DCF2D0D2D2196D43F40F0C43223
:1000BC0030F0C0E0D0E00395083009F400E0ED2EFC
:1000CC00FC2ED02E0F910FBF0F91CF91DF91189571
:1000DC002F93DF93CF930F930FB70F9300911101D1
:1000EC002091120133FD08C0021731F420919A00BF
:1000FC002F7D20939A000FC0C9E0D1E0C00F2227BA
:10010C00D21F288120939C00377F0395083008F07C
:10011C000027009311010F910FBF0F91CF91DF9129
:10012C002F9118952F93DF93CF930F930FB70F93B6
:10013C00222700919B0002FD2F5F03FD2F5F04FD22
:10014C002F5FC8E0D1E00881020F088300919C006A
:10015C00203009F00FEF0D93C0E0D1E02796CA17BD
:10016C00DB0714F4A0E0B1E031600F910FBF0F91E9
:10017C00CF91DF912F9118952F93CF93DF930F93FE
:10018C000FB70F930FB1C3E1D1E020911C01C20F47
:10019C002227D21F088320911C012395283008F0B8
:1001AC00222700911B01021709F4306820931C01CF
:1001BC003061009125012091260136FD04C0021703
:1001CC0011F43F7D0EC0CDE1D1E0C00F2227D21F2C
:1001DC0028812FB93F7B0395083008F00027009346
:1001EC0025010F910FBF0F91DF91CF912F91189592
:1001FC008202850288028B028E029102940297027F
:10020C009A029D02A002A302A602A902AC02AF02AE
:10021C00B202B5020000FFFFAE006600E0E0F1E0C4
:10022C0000270193F131E9F7E030D9F7EE27FF27EA
:10023C00EEE1FF27EA95F083E9F70FEF0DBF00E140
:10024C000EBF00E00093980000E00093990000E4DA
:10025C0000939B0008EB00939A0006E000939D002E
:10026C000FEF04BB0ABB01E003BF07BF01ED0DB9E3
:10027C0001E00EB907B3076007BB08B3016008BB08
:10028C00A0E0B1E0E89400E0789430FF0FC03E7F2E
:10029C00ED01DCD00A910B3649F4D8D00A9107371E
:1002AC0029F4D4D00A91013609F4326037FD06C026
:1002BC0020911C0100911B012017A9F133FD33C0C3
:1002CC00C3E1D1E020911B01C20F2227D21F08816C
:1002DC003F773F7E00932D0109E00093270101E059
:1002EC000093280102E10093290101E000932A0107
:1002FC0001E100932B0101E000932C0108E0009335
:10030C002E01ABD000912D0105FD386000919A00B3
:10031C00006200939A0020911B012395283008F06D
:10032C00222720931B0131FF32C036FD30C00B2D2C
:10033C00E0E2F2E0E00F0027F01F049100932D01A2
:10034C000DE10093270101E00093280106E20093E0
:10035C00290101E000932A0105E200932B0101E041
:10036C0000932C0108E000932E0177D000912D0111
:10037C0005FD306435FD03C00FEF0FB930620B2D56
:10038C000395E1E0E01714F400273D7FB02E32FF17
:10039C0054C03B7FC3E1D1E00D2DC00F00E0D01F56
:1003AC000881C02FD02FCF70D07FD695D695D695FB
:1003BC00D6955D2F6C2F0D2DC02FD02FCF70D07FE9
:1003CC00D695D695D695D6957D2F4C2F503108F0D5
:1003DC006894603108F06894703108F0689440318A
:1003EC0008F0689450300AF4689460300AF4689409
:1003FC0070300AF4689440300AF468940DB10F77A9
:10040C000DB900919A000F7D00939A00C32FD32F42
:10041C000DB100680DB900919A00006200939A002A
:10042C00C07819F0D87009F06894103039F0113098
:10043C0039F0123039F0133039F027CF0C946E02AA
:10044C000C9473020C9478020C947D0200E0C0179B
:10045C0001E0D00709F428960895F894C09127017B
:10046C00D0912801E0912901F0912A010081C00F5F
:10047C000027D01F00912D010883E0912B01F091F2
:10048C002C01D081E0912901F0912A01C081C39502
:10049C0000912E01C01708F0CC27CD1751F000E0C9
:1004AC0000932D01E0912901F0912A01C0837894E9
:1004BC0008950FEF00932D01F5CFCC0CECEFF1E08C
:1004CC000027EC0DF01FC591D491FE010994DDCEEF
:1004DC0001E005BBDEF1C52EF0CF02E005BBE6F175
:1004EC00C62EEBCF04E005BBBEF1C72EE6CF08E06D
:1004FC0005BBAEF1C42EE1CF00EC0BBBC6CE09EFB1
:10050C000BBBC3CE04EA0BBBC0CE00EB0BBBBDCE0A
:10051C0009E90BBBBACE02E90BBBB7CE02E80BBBA9
:10052C00B4CE08EF0BBBB1CE00E80BBBAECE00E9EE
:10053C000BBBABCE08E80BBBA8CE03E80BBBA5CE20
:10054C0006EC0BBBA2CE01EA0BBB9FCE06E80BBBA5
:10055C009CCE0EE80BBB99CE0FEA0BBB96CE0FEBE5
:04056C000BBB93CE64
:00000001FF
