:020000020000FC
:0200000015C128
:0200040018954D
:02000800189549
:02000C00189545
:02001000189541
:0200140018953D
:02001800189539
:02001C00189535
:02002000189531
:0200240018952D
:02002800189529
:02002C00189525
:02003000189521
:0200340018951D
:02003800189519
:02003C00189515
:0200400025C0D9
:020044009FC05B
:02004800189509
:02004C00189505
:02005000189501
:020054001895FD
:020058001895F9
:02005C001895F5
:020060001895F1
:020064001895ED
:020068001895E9
:02006C001895E5
:020070001895E1
:020074001895DD
:020078005BC06B
:02007C002FC093
:020080001895D1
:020084001895CD
:020088001895C9
:10008C00DF93CF930F930FB70F930196913048F0F6
:10009C00893338F0346080E090E01395143009F423
:1000AC0010E0DE2DCF2D0D2D2196DA3740F0C23128
:1000BC0030F0C0E0D0E00395083009F400E0ED2EFC
:1000CC00FC2ED02E0F910FBF0F91CF91DF91189571
:1000DC002F93DF93CF930F930FB70F9300911101D1
:1000EC002091120133FD08C0021731F420919A00BF
:1000FC002F7D20939A000FC0C9E0D1E0C00F2227BA
:10010C00D21F288120939C00377F0395083008F07C
:10011C000027009311010F910FBF0F91CF91DF9129
:10012C002F9118952F93DF93CF930F930FB70F93B6
:10013C00222700919B0002FD2F5F03FD2F5F04FD22
:10014C002F5FC8E0D1E00881020F088300919C006A
:10015C00203009F00FEF0D93C0E0D1E02796CA17BD
:10016C00DB0714F4A0E0B1E031600F910FBF0F91E9
:10017C00CF91DF912F9118952F93CF93DF930F93FE
:10018C000FB70F930FB1C3E1D1E020911C01C20F47
:10019C002227D21F088320911C012395283008F0B8
:1001AC00222700911B01021709F4306820931C01CF
:1001BC003061009125012091260136FD04C0021703
:1001CC0011F43F7D10C000912501CDE1D1E0C00FAD
:1001DC002227D21F28812FB93F7B0395083008F0C6
:1001EC000027009325010F910FBF0F91DF91CF9145
:1001FC002F91189560026302660269026C026F020D
:10020C007202750278027B027E02810284028702EE
:10021C008A028D0290029302200AFF505308FFFFBE
:10022C00E0E0F1E000270193F131E9F7E030D9F794
:10023C00EE27FF27EEE1FF27EA95F083E9F70FEFB2
:10024C000DBF00E10EBF00E00093980000E00093AA
:10025C00990000E400939B0008EB00939A0006E0E1
:10026C0000939D000FEF04BB0ABB01E003BF07BF67
:10027C0001ED0DB901E00EB907B3016007BB08B37E
:10028C00016008BBA0E0B1E0E89400E0789430FF96
:10029C000FC03E7FED01AAD00A910B3649F4A6D0CF
:1002AC000A91073729F4A2D00A91013609F4326079
:1002BC0037FD06C020911C0100911B012017D9F0BD
:1002CC0033FD19C0C3E1D1E020911B01C20F2227DD
:1002DC00D21F08813F773F7EA02E8FD000919A00CD
:1002EC00006200939A0020911B012395283008F09E
:1002FC00222720931B0131FF18C036FD16C00B2D91
:10030C00E4E2F2E0E00F0027F01F0491902E96D06B
:10031C0035FD03C00FEF0FB930620B2D0395E7E0ED
:10032C00E01714F400273D7FB02E32FF56C03B7F00
:10033C00C3E1D1E00D2DC00F00E0D01F0881C02F0C
:10034C00D02FCF70D07FD695D695D695D6955D2FDC
:10035C006C2FED014BD00A91C02FD02FCF70D07FD6
:10036C00D695D695D695D6957D2F4C2F503108F035
:10037C006894603108F06894703108F068944031EA
:10038C0008F0689450300AF4689460300AF4689469
:10039C0070300AF4689440300AF468940DB10F7709
:1003AC000DB900919A000F7D00939A00C32FD32FA3
:1003BC000DB100680DB900919A00006200939A008B
:1003CC00C07819F0D87009F06894103039F01130F9
:1003DC0039F0123039F0133039F059CF0C944C02FB
:1003EC000C9451020C9456020C945B0200E0C01762
:1003FC0001E0D00709F42896089500919A000F7D2A
:10040C0000939A00C9E0D1E000911201C00F0027BF
:10041C00D01F0A2D0883D0911101C0911201C395F0
:10042C00C83008F0CC27CD1709F43860C0931201FE
:10043C0000919A00006200939A0008950DB10F7715
:10044C000DB9CDE1D1E000912601C00F0027D01FDE
:10045C00092D0883D0912501C0912601C395C83080
:10046C0008F0CC27CD1709F43064C09326010DB1E8
:10047C0000680DB90895CC0CE0E0F2E00027EC0D1B
:10048C00F01FC591D491FE01099401CF01E005BB89
:10049C00DEF1C52EF0CF02E005BBE6F1C62EEBCFA8
:1004AC0004E005BBBEF1C72EE6CF08E005BBAEF1FC
:1004BC00C42EE1CF00EC0BBBEACE09EF0BBBE7CEB1
:1004CC0004EA0BBBE4CE00EB0BBBE1CE09E90BBBA2
:1004DC00DECE02E90BBBDBCE02E80BBBD8CE08EFBD
:1004EC000BBBD5CE00E80BBBD2CE00E90BBBCFCEFD
:1004FC0008E80BBBCCCE03E80BBBC9CE06EC0BBBA0
:10050C00C6CE01EA0BBBC3CE06E80BBBC0CE0EE8D1
:10051C000BBBBDCE0FEA0BBBBACE0FEB0BBBB7CEF2
:00000001FF
